:100000008031022888018631E82E003432343134C0
:1000100034343934323432343034343420342634C5
:10002000203432343134383430343734393436349F
:10003000353400345234453449344934203433346F
:06004000323431340034BB
:100DD00020008731952F20000F11C0308731452723
:100DE0008631080020008F15F52EF62EF72EF82EEE
:100DF00020008F11080020000F1101308731452796
:100E000086311530F600C630F500F50B052FF60BD0
:100E1000052F64000800F60020000F151B2F760830
:100E200080310A0087318731452787310130F5004D
:100E30007508F6071B2F760880310A0087310038C5
:100E4000031D232F242F0F2F252F080020000F1103
:100E50008631F22687316830F600E430F500F50B74
:100E60002F2FF60B2F2F640028308731452787312D
:100E70000E30873145278731063087314527873146
:100E800001308731452787310800F4007408F039B4
:100E900020008E008631F22687317408F10003307D
:100EA000F135FF3E031D502F7135F03920008E00C3
:100EB0008631F22687310B30F3001C30F2006330AC
:100EC000F100F10B612FF20B612FF30B612F640026
:100ED000080020000F11812F1C30873145278731F2
:100EE000942F1B30873145278731942F103087315D
:100EF00045278731942F1430873145278731942F28
:100F0000942F7608003A0319862F942F7508003A1B
:100F100003196C2F013A0319712F033A0319762F25
:100F2000013A03197B2F942F080023008F01210021
:100F30008F0123008D01FF3021008D008E012000E4
:100F40008E118731262787311A3087310B27873159
:100F50002930F9006E30F8009830F700F70BAE2F0B
:100F6000F80BAE2FF90BAE2FB52F8631EB2687315C
:100F7000063087310B278731BD2F20000D1CC12F74
:100F8000C22FCA2F0030F5000030F60087316927E4
:100F90008731CA2F20008D1CCE2FCF2FD72F0230A4
:100FA000F5000030F600873169278731D72F200000
:100FB0000D1DDB2FDC2FE02F8631FB268731E02F44
:100FC00020000D1FE42FE52FED2F0330F50000303A
:100FD000F600873169278731ED2F20008D1FF12F13
:100FE000F22FFA2F0130F5000030F6008731692723
:100FF0008731FA2F20008E15BD2FBD2F803102289A
:00000001FF
